:020000040800F2
:10000000000500209D010008EF1D0008BD1B000831
:10001000ED1D000819040008652400080000000018
:10002000000000000000000000000000F31D0008B8
:100030001B04000800000000F11D0008F51D000869
:10004000B7010008B7010008B7010008B7010008B0
:10005000B7010008B7010008B7010008B7010008A0
:100060001D04000823040008B7010008B7010008B8
:10007000B7010008B7010008B7010008B701000880
:10008000B7010008B7010008E5020008B701000841
:10009000B7010008B7010008B7010008B701000860
:1000A000B7010008B7010008B7010008B701000850
:1000B0009D1E0008B7010008B7010008B70100083D
:1000C000B7010008B7010008B7010008B701000830
:1000D000B701000859240008B7010008B70100085B
:1000E000B7010008B7010008B7010008B701000810
:1000F000B7010008B7010008B7010008B701000800
:10010000B7010008B7010008B7010008B7010008EF
:10011000B7010008B7010008B7010008B7010008DF
:10012000B7010008B7010008B7010008B7010008CF
:10013000B7010008B7010008B7010008B7010008BF
:10014000B7010008B7010008B7010008B7010008AF
:10015000B7010008B7010008B7010008B70100089F
:10016000B7010008B7010008B7010008B70100088F
:10017000B7010008B7010008B7010008000000003F
:10018000B7010008B7010008DFF80CD000F098F8BC
:100190000048004735260008000500200648804733
:1001A00006480047FEE7FEE7FEE7FEE7FEE7FEE75C
:1001B000FEE7FEE7FEE7FEE78D1E00088901000866
:1001C0002DE9F05F0546002092469B46884606468C
:1001D000814640241BE0284641464746224600F01F
:1001E0005EF853465A46C01A914110D3114618463C
:1001F000224600F045F82D1A67EB01084F462246CB
:100200000120002100F03CF817EB00094E41201EB0
:10021000A4F10104DFDC484631462A464346BDE8E6
:10022000F09FD2B201E000F8012B491EFBD27047CB
:100230000022F6E710B513460A4604461946FFF7B2
:10024000F0FF204610BD421C10F8011B0029FBD115
:10025000801A704730B50B46014600202022012449
:1002600009E021FA02F59D4205D303FA02F5491B84
:1002700004FA02F52844151EA2F10102F1DC30BD9A
:10028000202A04DB203A00FA02F100207047914056
:10029000C2F1200320FA03F3194390407047202A4B
:1002A00004DB203A21FA02F00021704721FA02F320
:1002B000D040C2F120029140084319467047000027
:1002C000064C074D06E0E06840F0010394E80700A3
:1002D00098471034AC42F6D3FFF75AFF382700088E
:1002E00058270008014800F04BB900002C000020FE
:1002F000464910B54A6822F440324A604A68436869
:100300001A434A6001684A6822F480724A600168B0
:100310004A68036942EA03224A6001684A6822F097
:1003200040724A6001684A6883681A434A600168FB
:100330008A6822F400628A6001688A68C3681A4386
:100340008A60816A6FF07062D14201688A6822F027
:1003500070628A6001688A680CD0836A1A438A6076
:1003600001688A6822F040528A6001688A68C36A1C
:100370001A4301E022F040528A6001688A6822F044
:1003800002028A6001688A68037E42EA43028A6048
:1003900090F82010002901684A680FD042F40062EA
:1003A0004A6001684A6822F460424A6001684A680B
:1003B000174C436A04EB43331A4301E022F4006212
:1003C0004A600168CA6A22F47002CA620168CA6A95
:1003D000838B104C04EB03531A43CA6201688A688A
:1003E00022F400728A6001688A6890F8303042EA2C
:1003F00043228A6001688A6822F480628A60016808
:100400008A68406942EA8020886010BD002301406C
:1004100000E0FFFF0000F0FFFEE77047042000F05F
:100420003DBA082000F03ABA72B6FEE77047000005
:1004300078B50024009490F83C20012A19D00122BC
:1004400080F83C200A6807230568092A13D9EE685A
:100450000A3A02EB420293409E43EE600B788A68B0
:100460000A3B03EB43039A400368DD682A43DA60E2
:1004700010E0022078BD2E6902EB420293409E43B9
:100480002E610B788A6803EB43039A4003681D6969
:100490002A431A614A681F23072A13D205686E6B24
:1004A000521E02EB820293409E436E630B790A88D0
:1004B0005B1E92B203EB83039A4003685D6B2A4391
:1004C0005A6327E005680D2A12D22E6BD21F02EB69
:1004D000820293409E432E630B790A88DB1F92B2FF
:1004E00003EB83039A4003681D6B2A431A6311E0F0
:1004F000EE6A0D3A02EB820293409E43EE620B7964
:100500000A880D3B92B203EB83039A400368DD6ACD
:100510002A43DA62164B0568144A9D4206D10D68DB
:10052000122D03D1556845F48005556005689D423C
:1005300018D10B68102B01D0112B13D1536843F441
:1005400000035360096810290CD10A490A4A096856
:10055000B1FBF2F101EB8101490000E0491E00917D
:100560000029FBD180F83C40002078BD00230140E9
:10057000002001401800002040420F0070477047E3
:1005800070B5044600680668456816F0020F05F06D
:1005900020012AD049B3216CC90603D4216C41F44F
:1005A00000712164816811F0405F17D1217EA9B9E3
:1005B000C16A11F4700F02D0816849050ED44168F8
:1005C00021F020014160206C20F480702064206CB8
:1005D000C00403D4206C40F0010020642046FFF7E3
:1005E000CDFF21686FF01200086016F0040F05F0CF
:1005F000800132D089B3206CC00603D4206C40F453
:10060000005020642068816811F4401F1ED1816B66
:1006100011F4401F02D08168490517D4416849058B
:1006200014D4816811F0405F10D1217E71B9416806
:1006300021F080014160206C20F480502064206C07
:10064000C00503D4206C40F0010020642046FFF771
:10065000EDFE21686FF00C00086016F0010F05F048
:1006600040010FD071B120680068C0070AD0206C2B
:1006700040F480302064204600F043F821686FF099
:100680000100086016F0200F05F080610ED00029EF
:100690000CD0606C40F00200606420686FF02005B0
:1006A00005602046FFF76BFF2068056070BD70B5E0
:1006B00004004FF0000503D0206C002610B107E0C5
:1006C000012070BD204600F01DF8666484F83C608F
:1006D000206CC00610D4206C20F4885040F002003A
:1006E00020642046FFF704FE6664206C20F00200C0
:1006F00040F00100206400E0012584F83C602846B9
:1007000070BD704710B586B0044614216846FFF7E7
:100710008FFD15492068884224D1144800210268C1
:1007200042F480720260006800F4807005900F4807
:100730001438026842F001020260006800F0010013
:100740000590102000900320CDE90101694608487A
:1007500000F0B0F800221146122000F01FFA12201B
:1007600000F00EFA06B010BD0020014044380240EF
:10077000000002402DE9F0410446876D00F0A0F929
:10078000064694F835000025022806D080206065D2
:1007900084F834500120BDE8F0812068016821F020
:1007A000160101602068416921F080014161206CDF
:1007B00008B9A06C20B12068016821F0080101602F
:1007C0002068016821F0010101600CE000F078F977
:1007D000801B052807D920206065032084F8350098
:1007E00084F83450D7E720680068C007EED194F849
:1007F0005C103F208840B860012084F8350084F800
:1008000034500020C7E790F83510022903D080212A
:10081000416501207047052180F8351000680168A6
:1008200021F00101016000207047000070B504460E
:1008300000F046F90546601C02D0044800780444E4
:1008400000F03EF9401BA042FAD370BD0C0000201E
:100850000B4A1178042809D071B1491F1170094859
:1008600011780068416308A001F0FEBD192901D08C
:10087000491DF3E7052000E019201070EFE70000A4
:100880000000002074000020B5B1C7B0D5BCBFD5B2
:10089000B1C8CEAAA3BA25640D0A0000044910B558
:1008A0000A68024202D00860FFF7D2FF10BD0000C4
:1008B000143C01402DE9F84FDFF8BCA100220125CE
:1008C00003264FF00F090AF1040BAAF1040E00BF32
:1008D0000B6805FA02F42340A34270D10F7907F0A8
:1008E0000307012F01D0022F16D187684FEA420873
:1008F00006FA08FC27EA0C07D1F80CC00CFA08FC31
:100900004CEA070CC0F808C04768A7430C79C4F349
:10091000001494403C4344600C79E443A4070AD09B
:10092000C4684FEA420C06FA0CF7BC438F6807FA1A
:100930000CF72743C7600C7904F00304022C12D192
:10094000D40800EB840CDCF820405707FF0E09FAAE
:1009500007F824EA0804D1F8108008FA07F848EAF2
:100960000408CCF8208004684FEA420C06FA0CF721
:10097000BC430F7907F0030707FA0CF7274307601A
:100980004C6814F4403F70D03C4C276847F48047D3
:100990002760246822F0030704F480440094384C54
:1009A00007EB040CDCF8084897074FEA177809FAB8
:1009B00008F7BC43334FB84202D1002724E054E08B
:1009C000314FB84201D101271EE0304FB84201D16A
:1009D000022719E02E4FB84201D1032714E02D4F12
:1009E000B84201D104270FE02B4FB84201D10527AF
:1009F0000AE02A4FB84201D1062705E0284FB84245
:100A000001D1072700E0082707FA08F72743CCF8A9
:100A10000878DAF800405746D1F804C09C435FEAF2
:100A2000CC2C00D51C433C60DBF800405F46D1F87D
:100A300004C09C435FEA8C2C00D51C433C60DEF86C
:100A400000407746D1F804C09C435FEA8C3C00D557
:100A50001C433C60084F083F3C68D1F804C09C43ED
:100A60005FEACC3C00D51C433C60521C102AFFF4CA
:100A70002FAFBDE8F88F0000083C01404438024029
:100A80000030014000000240000402400008024023
:100A9000000C024000100240001402400018024006
:100AA000001C0240426921EA02030A4043EA024173
:100AB000816170470AB1816170470904FBE700005A
:100AC00001488068704700000C00002002488168DF
:100AD00002781144816070470C0000200B4810B56B
:100AE000016841F400710160016841F480610160B6
:100AF000016841F480710160032000F06FF80F205D
:100B000000F006F800F024F8002010BD003C024080
:100B100070B50D4D04464FF47A712878B1FBF0F0B2
:100B20000A490968B1FBF0F000F00AFB48B9102C43
:100B300007D200222146501E00F030F800206C60E1
:100B400070BD012070BD00000C00002018000020C6
:100B50000A4808B5016841F480410160006800F46A
:100B6000804000900548001F016841F080510160FD
:100B7000006800F08050009008BD0000443802403A
:100B8000002809DB00F01F0201219140400980008C
:100B900000F1E020C0F8001170470000F0B40E4BE7
:100BA0001B680C46C3F30223C3F10705042D00D9CB
:100BB0000425191D072901D2002300E0DB1E0126B0
:100BC00006FA05F1491E214099409E40761E1640C6
:100BD0003143F0BC01F058BC0CED00E0064900F0D8
:100BE000070208684FF6FF03184040EA0220034A54
:100BF00010430860704700000CED00E00000FA05AB
:100C00002DE9F0470E46050065D0DFF81481D8F8CD
:100C10000000F7B200F00700B04207D288F8007079
:100C2000D8F8000000F00700B04254D128683D4CCD
:100C3000810712D5400703D5206840F4E0502060BA
:100C40002878000703D5206840F4604020602068C1
:100C5000A96820F0F000084320602878C0072DD054
:100C6000304968680839012812D0022813D00328B7
:100C700011D00968890700292DDA216821F00301C4
:100C800001432160FFF71CFF814641F2883A0EE0E4
:100C900009688903EFE709688901ECE7FFF710FFAE
:100CA000A0EB0901514502D90320BDE8F087206877
:100CB000696800F00C00B0EB810FEFD1D8F800109C
:100CC000404601F00701B14207D90770006800F003
:100CD0000700B04201D00120E7E72878400705D59A
:100CE0002068E96820F4E050084320602878000775
:100CF00006D52068296920F4604040EAC1002060E0
:100D000000F038F82168084AC1F30311515CC8406B
:100D10000649086006480068FFF7FAFE0020C4E7AD
:100D2000003C024008380240F0260008180000206D
:100D3000100000200448054900680968044AC1F30E
:100D40008221515CC84070471800002008380240DA
:100D5000002700080448054900680968044AC1F3EF
:100D60004231515CC84070471800002008380240EA
:100D700000270008154810B5006810F00C02144850
:100D800013D04110042A0FD0082A0ED10F4C241F73
:100D90002268236802F03F025B0207D52068C0F397
:100DA0008810A0FB010106E0084610BD2168C1F3D0
:100DB0008811A1FB00010023FFF702FA2168C1F3AB
:100DC0000141491C4900B0FBF1F010BD0838024058
:100DD0000024F4002DE9F84F04006ED02078DFF8ED
:100DE0004C93C007A9F104054AD009F10400016839
:100DF000C1F38101012908D00068C0F381000228F5
:100E00000AD1D9F80000400206D52868800337D5FA
:100E100060680028E1D033E06068B0F5803F10D012
:100E2000B0F5A02F286810D020F480302860286802
:100E300020F4802028606068A8B1FFF741FE0646D4
:100E40000DE0286840F48030F4E740F4802028600A
:100E5000F7E700BFFFF734FE801B642873D82868CB
:100E60008003F7D50CE0FFF72BFE064605E000BF38
:100E7000FFF726FE801B6428F0D828688003F7D48B
:100E80002078DFF8AC8280074FF0000A3ED5A748F3
:100E9000001D016811F00C0F08D00068C0F381003C
:100EA00002280BD1D9F80000400207D42868800737
:100EB00016D5E068012800D112E033E1E068B8B14E
:100EC0000120C8F80000FFF7FBFD064605E000BF63
:100ED000FFF7F6FD801B0228C0D828688007F7D5E9
:100EE0002868216920F0F80040EAC10028600DE080
:100EF000C8F800A0FFF7E4FD064604E0FFF7E0FDB8
:100F0000801B02281FD828688007F7D420780007A4
:100F100022D5864F87486169703771B10121016020
:100F2000FFF7CEFD064604E0FFF7CAFD801B02284E
:100F300009D838688007F7D50EE0C0F800A0FFF7A1
:100F4000BFFD064605E082E0FFF7BAFD801B0228E0
:100F50007DD838688007F7D42078400768D5DFF857
:100F6000CCB100270BF13C0BDBF80000C0000BD428
:100F7000DBF8001041F08051CBF80010DBF80000E6
:100F8000012700F0805000906B4E3068C00510D4EF
:100F9000306840F480703060FFF792FD009005E00B
:100FA000FFF78EFD0099401A022850D83068C0051E
:100FB000F6D55E4EA0686C3601280FD00528306843
:100FC00010D020F001003060306820F00400306064
:100FD000A068B8B1FFF774FD00900FE0306840F0F2
:100FE0000100F4E740F004003060F7E7FFF768FD28
:100FF0000099411A41F28830814266D830688007F2
:10100000F4D50EE0FFF75CFD009007E0FFF758FD18
:101010000099411A41F28830814256D830688007E1
:10102000F4D42FB1DBF8001021F08051CBF8001080
:10103000A069C8B33D49091D0968C1F381010229AE
:101040004AD00228504607D0C8F8600000E03CE0D3
:10105000FFF736FD04463BE04746C8F86000FFF75F
:101060002FFD064605E000BFFFF72AFD801B022882
:101070002BD828688001F7D4D4E907010843A16A76
:101080002E4A490802EB0141626A41EA8211084393
:1010900094F82C1040EA0161C9F80010012038666C
:1010A000FFF70EFD044606E03EE000BFFFF708FD37
:1010B000001B022809D828688001F7D534E000BF5A
:1010C000FFF7FEFC001B022802D90320BDE8F88FC1
:1010D00028688001F4D427E00128F7D0D9F800006F
:1010E000E26900F4800191421CD1226A00F03F01C4
:1010F000914217D147F6C071626A0140B1EB821F7D
:1011000010D1A26A4FF0FF3300F4403103EB5202DA
:10111000B1EB024F06D194F82C1000F07060B0EBE8
:10112000016F01D00120D1E70020CFE70438024051
:1011300000004742800E4742007000400000FFFF61
:1011400010B5401EB0F1807F01D3012010BD4FF0DB
:10115000E02460610F21601701F096F90020A06182
:1011600007202061002010BD7047704770B590F8CF
:101170003C20012A32D0012480F83C40022280F831
:101180003D2003685A689D6822F070060A68324361
:101190005A60134B02689A4214D0B2F1804F11D0BA
:1011A000104B9A420ED0104B9A420BD00F4B9A42E2
:1011B00008D00F4B9A4205D00E4B9A4202D00E4BEC
:1011C0009A4204D1496825F080031943916080F860
:1011D0003D40002180F83C10084670BD022070BDE3
:1011E000000001400004004000080040000C0040E6
:1011F00000040140004001400018004010B5040008
:1012000003D094F83D0010B107E0012010BD00208C
:1012100084F83C00204600F01FF8022084F83D00CE
:10122000211D206800F040FE012084F8460084F86B
:101230003E0084F83F0084F8400084F8410084F8C0
:10124000420084F8430084F8440084F8450084F8A0
:101250003D00002010BD000008B50068B0F1804FCF
:1012600012D10A48016841F00101016000680022C2
:1012700000F00100009011461C20FFF78FFCBDE834
:1012800008401C20FFF77CBC08BD0000403802402D
:1012900070B5044690F83C000025012817D00126BF
:1012A00084F83C60022084F83D002068826822F0C7
:1012B000770222F47F4282600868502838D00DDC23
:1012C00020284FD005DC90B3102811D14AE002202D
:1012D00070BD302846D040280AD13BE060282FD08E
:1012E00070280DD0B0F5805F03D0B0F5005F12D04C
:1012F000012584F83D60002084F83C00284670BD3C
:10130000CB68D1E90121206800F03FFE20688168A8
:1013100041F0770109E0CB68D1E90121206800F0B4
:1013200034FE2068816841F480418160E1E719E082
:10133000CA684968206800F0FDFE5021206806E078
:10134000CA684968206800F006FF6021206800F044
:1013500026FECEE7CA684968206800F0EBFE40210F
:101360002068F4E7226801461046F0E7704770B540
:101370000446006801694FF00005C943890715D488
:10138000C168C943890711D4E91E01610120207792
:10139000206880698007204602D0FFF7E7FF04E05D
:1013A00000F0C0F8204600F052F925772068016966
:1013B000C943490717D4C168C943490713D46FF01B
:1013C00004010161022020772068806910F4407FC9
:1013D000204602D0FFF7CAFF04E000F0A3F8204641
:1013E00000F035F9257720680169C943090716D44B
:1013F000C168C943090712D46FF0080101610420D4
:1014000020772068C0698007204602D0FFF7AEFF32
:1014100004E000F087F8204600F019F925772068ED
:101420000169C943C90617D4C168C943C90613D4A1
:101430006FF010010161082020772068C06910F466
:10144000407F204602D0FFF791FF04E000F06AF8E9
:10145000204600F0FCF8257720680169C943C907D8
:1014600008D1C168C943C90704D1891E016120465A
:1014700000F052F920680169C943090609D4C1681E
:10148000C943090605D46FF0800101612046FFF7CA
:101490006BFE20680169C943490609D4C168C94384
:1014A000490605D46FF040010161204600F035F98E
:1014B00020680169C94389060BD4C168C9438906FC
:1014C00007D46FF0200101612046BDE87040FFF7AE
:1014D0004CBE70BD10B586B0044614216846FEF7B8
:1014E000A7FE2068B0F1804F15D10C48002102689A
:1014F00042F001020260006800F001000590202027
:101500000090022001900120CDE90201049069467B
:101510000348FFF7CFF906B010BD00003038024095
:1015200000000240704770B5044690F83C00002669
:101530000D4601280FD0012084F83C006AB1042A2E
:101540001DD0082A2FD00C2A3FD00126002084F875
:101550003C00304670BD022070BD206800F028FDC0
:101560002068816941F0080181612068816921F06A
:1015700004018161206881692A69114311E02068B2
:1015800000F046FD2068816941F4006181612068B6
:10159000816921F480618161206881692A6941EA59
:1015A00002218161D2E7206800F068FD2068C169EE
:1015B00041F00801C1612068C16921F00401C161E5
:1015C0002068C1692A69114311E0206800F08AFD92
:1015D0002068C16941F40061C1612068C16921F4DA
:1015E0008061C1612068C1692A6941EA0221C16143
:1015F000ACE710B5040003D094F83D0010B107E04B
:10160000012010BD002084F83C00204600F01EF8A8
:10161000022084F83D00211D206800F045FC0120D7
:1016200084F8460084F83E0084F83F0084F84000C7
:1016300084F8410084F8420084F8430084F84400B0
:1016400084F8450084F83D00002010BD70477047C5
:1016500010B50446022249B104290ED0082913D03E
:1016600094F84100012816D0012010BD94F83E00E6
:101670000128F9D184F83E200FE094F83F000128BA
:10168000F2D184F83F2008E094F840000128EBD123
:1016900084F8402001E084F841200122206800F015
:1016A00067FC16492068164A884201D0904203D14F
:1016B000436C43F4004343642068884213D0B0F184
:1016C000804F10D00F4988420DD00F4988420AD070
:1016D0000E49884207D0904205D00D49884202D079
:1016E0000C49884204D1816801F00701062903D022
:1016F000016841F001010160002010BD00000140BF
:10170000000401400004004000080040000C0040BC
:101710000040014000180040704770477047704714
:10172000F8B5016804460868CA684B6910F00F0FE5
:101730004FF000055AD003F0010602F490773743CA
:1017400065D0C10705D0D10503D5216C41F0010159
:101750002164410705D5D90703D0216C41F002016E
:101760002164810705D5D90703D0216C41F004011C
:101770002164010707D502F02001314303D0216C19
:1017800041F008012164216C00293BD0800604D57A
:10179000900602D5204600F01FFD20684069216CAC
:1017A000C0F3801001F00801014320462BD000F067
:1017B000ECFC20684069400621D52068143050E8D0
:1017C000001F21F0400140E80012002AF5D1A06B73
:1017D000A8B16C490165A06BFFF715F8002811D07E
:1017E000A06B016D01B0BDE8F040084783060ED53F
:1017F00093060CD52046BDE8F84000F0EDBC20462D
:10180000FFF78DFFF8BDFFF78AFF2564F8BD266B53
:101810002023012E79D1C60677D5D60675D508685E
:10182000486800904869400640D5A16B0868406848
:101830000004000CEAD0A28D8242E7D9E085C86995
:10184000B0F5807F2DD020680C3050E8001F21F4C7
:10185000807140E80012002AF5D12068143050E869
:10186000001F21F0010140E80012002AF5D1206894
:10187000143050E8001F21F0400140E80012002A17
:10188000F5D184F83E30256320680C3050E8001F05
:1018900021F0100140E80012002AF5D1A06BFEF7FC
:1018A00069FFA08DE18D401A81B229E0A08DE18D04
:1018B000401A81B2E08D0028A8D00029A6D0206867
:1018C0000C3050E8002F22F4907240E80026002EE1
:1018D000F5D12068143050E8002F22F0010240E8D2
:1018E0000026002EF5D184F83E30256320680C30A8
:1018F00050E8002F22F0100240E80023002BF5D121
:101900002046FFF70BFFF8BDFFE705062BD51506B0
:1019100029D594F83D002128F5D1A068B0F5805F65
:1019200001D12069B0B1206A411C21622168007890
:101930004860E08C401E0004000CE084E3D1206885
:10194000C16821F08001C1602068C16841F0400198
:10195000C160D8E7206A0088C0F308004860206AA8
:10196000801C2062E5E74006CDD55006CBD5CA687D
:10197000204622F04002CA6084F83D3000F01DF994
:10198000C1E700007B21000870B5040004D094F882
:101990003D00002510B106E0012070BD84F83C50E8
:1019A000204600F023F8242084F83D002068C16818
:1019B00021F40051C160204600F06EFC20680169EE
:1019C00021F4904101612068416921F02A014161BF
:1019D0002068C16841F40051C1602564202084F86A
:1019E0003D0084F83E00002070BD000010B586B0B8
:1019F000044614216846FEF71BFC184920688842FB
:101A000029D117480021026842F0100202600068E4
:101A100000F01000059012481438026842F00102EC
:101A20000260006800F0010005904FF4C060009073
:101A30000220CDE9010103200390072004906946AC
:101A40000848FEF737FF002211462520FFF7A6F8C9
:101A50002520FFF795F806B010BD000000100140EA
:101A6000443802400000024090F83E30202B0ED156
:101A700059B152B190F83C30012B08D0012380F8C5
:101A80003C300023036300F08DBC0120704702202E
:101A900070470000194910B588422ED1184CE078E3
:101AA00018BBA178174809290FD30021A170016044
:101AB000416001816068FEF7C6FB82B24FF6FF739A
:101AC0000E48616800F020F80FE062784254491C2B
:101AD000C9B20844A17010F8011C0A2905D110F8F8
:101AE000020C0D2801D10120E07005490122BDE85A
:101AF0001040491C0148FFF7B7BF10BDBC000020D3
:101B000000000020200000202DE9F843044690F852
:101B10003D001F4616460D4620284CD1C5B1BEB12A
:101B200094F83C00012846D0012084F83C004FF096
:101B30000008C4F84080212084F83D00FEF7C0FF73
:101B4000A6848146E684A068B0F5805F03D004E0F7
:101B50000120BDE8F883206928B12E465FF000051A
:101B600084F83C800EE00026FAE78021204600F051
:101B700036FCA0B9AEB116F8010B21684860E08CC4
:101B8000401EE084E08C4B464FF000020097002896
:101B9000EBD14FF04001204600F021FC30B1032092
:101BA000D7E735F8020BC0F30800E6E7202084F8F9
:101BB0003D000020CDE70220CBE77047FEE70000A4
:101BC0007FB50024154800940194029412490394AF
:101BD00001604FF40031C0E901140125046105766C
:101BE00080F820400E49C0E90A14C561C46080F83D
:101BF00030404561FEF75BFD08B1FEF715FC04209F
:101C0000CDE90005694602940448FEF711FC00285E
:101C100001D0FEF709FC7FBD002001402C00002010
:101C20000100000F2DE9F04186B014216846FEF74F
:101C3000FFFA35480026016841F010010160016893
:101C400001F010010591016841F004010160016893
:101C500001F004010591016841F020010160016873
:101C600001F020010591016841F0800101600168E7
:101C700001F080010591016841F0010101600068F7
:101C8000DFF8888000F001004FF4C0650590012264
:101C900029464046FEF70EFF0C2000904FF404103A
:101CA0000124CDE901041A4F69463846FEF702FEC9
:101CB0001020CDE90006694602943846FEF7FAFD89
:101CC000CDE9005402250295694640460395FEF78A
:101CD000F1FDCDE9004669460E480295FEF7EAFDA2
:101CE000002211460820FEF759FF0820FEF748FFA2
:101CF000002211460920FEF751FF0920FEF740FFA0
:101D000006B0BDE8F0810000303802400014024007
:101D1000001002400000024010B58EB0002407946D
:101D2000089409940A940B941C2168460C94FEF7BD
:101D30007FFA1F484FF08041016042F2CF01C0E9B5
:101D40000114C721C0E9031480218161FFF756FA0D
:101D500008B1FEF769FB4FF48050079007A91448BB
:101D6000FFF796FA08B1FEF75FFB1148FFF741FC59
:101D700008B1FEF759FB0B940BA90D480C94FFF723
:101D8000F5F908B1FEF750FB6020CDE9000404200E
:101D900004900022694602940548FFF7C4FB08B18D
:101DA000FEF742FB0248FFF795FB0EB010BD0000A6
:101DB000740000200C4810B50A4901604FF4E1316D
:101DC0004160002181600C22C160C0E90412816180
:101DD000C161FFF7D9FD002803D0BDE81040FEF730
:101DE00023BB10BD00100140BC000020FEE7FEE751
:101DF00070477047FEF76ABE30B593B03021684631
:101E0000FEF716FA14210CA8FEF712FA1D48002559
:101E1000016841F080510160006800F0805011902D
:101E20001948016841F4804101600068022400F40F
:101E30008040119001200090000401908001CDE9C4
:101E4000064008AA0420A82182E813000B906846E7
:101E5000FEF7C0FF08B172B6FEE70CA90F2081E8BB
:101E600031004FF4A0500F904FF480501090052196
:101E70000CA8FEF7C5FE002801D072B6FEE713B02D
:101E800030BD000040380240007000400248016848
:101E900041F470010160704788ED00E00148FFF7F0
:101EA00066BA000074000020F0B50268254C264D8B
:101EB000264E274F274B4FF0804CA04209D060455B
:101EC00007D0A84205D0B04203D0B84201D0984212
:101ED00004D122F0700E4A6842EA0E02A0421BD0E2
:101EE000604519D0A84217D0B04215D0B84213D0DF
:101EF000984211D0184DA8420ED0184DA8420BD0D0
:101F0000174DA84208D0174DA84205D0164DA8423B
:101F100002D0164DA84203D122F44075CA682A4364
:101F20004D6922F080022A4302608A68C2620A6810
:101F30008262A04201D0984201D109690163012166
:101F40004161F0BD00000140000400400008004075
:101F5000000C0040000401400040014000440140EA
:101F60000048014000180040001C004000200040D4
:101F700010B501F01F030121046A99408C430462EB
:101F8000016A9A401143016210BD10B5846842EAAB
:101F9000032224F47F440A432243826010BD8268F6
:101FA00022F070020A4342F007018160704700008E
:101FB000F0B5026A22F001020262036A4268846993
:101FC000124E24F073050C682C4323F002058B6835
:101FD0002B430D4DA84201D0B04205D123F0080794
:101FE000CB683B4323F00403A84201D0B04205D1A3
:101FF0004D6922F4407215438A692A434260846124
:10200000496841630362F0BD0000014000040140E3
:10201000F0B5026A22F010020262026A4368846923
:102020000D6824F4E64444EA05248D6822F0200279
:1020300042EA05120F4D104EA84201D0B04206D11F
:10204000CF6822F0800242EA071222F04002A84242
:1020500001D0B04207D14D6923F4406343EA8503C0
:102060008D6943EA85034360846149688163026244
:10207000F0BD00000000014000040140F0B5026A1C
:1020800022F480720262026A4368C46922F4007218
:1020900024F073050C68124E2C438D6842EA052229
:1020A0000E4DA84201D0B04206D1CF6822F40062A2
:1020B00042EA072222F48062A84201D0B04207D14E
:1020C0004D6923F4405343EA05138D6943EA051330
:1020D0004360C4614968C1630262F0BD0000014011
:1020E0000004014030B5026A22F480520262046AA0
:1020F0004268C3690D6823F4E64343EA05238D680B
:1021000024F4005444EA0534084DA84202D0084D96
:10211000A84204D14D6922F4804242EA851242600D
:10212000C36149680164046230BD000000000140E1
:102130000004014010B5036A046A24F0010404623B
:10214000846924F0F00444EA021423F00A020A43EA
:102150008461026210BD10B5036A23F010030362AC
:102160008369046A23F4704343EA023224F0A00333
:1021700043EA01118261016210BD10B5806B00213C
:10218000C185C184FFF7CBFA10BD01680C3151E85D
:10219000002F22F4907241E80023002BF5D1016852
:1021A000143151E8002F22F0010241E80023002BF6
:1021B000F5D1016B012909D101680C3151E8002FDB
:1021C00022F0100241E80023002BF5D1202180F8F5
:1021D0003E1000210163704708B590F83E10222997
:1021E00001D0022008BD82684FF480539A4201D189
:1021F000016921B1816A9A421BD04AB10AE00268A2
:10220000816A5268C2F308020A80816A891C08E068
:10221000026972B10268526802F07F020A70816A34
:10222000491C8162C18D491E0904090CC18503D076
:1022300019E002685268F1E70168CA6822F02002DA
:10224000CA600168CA6822F48072CA6001684A697B
:1022500022F001024A61202180F83E10016B012921
:1022600003D0FFF717FC002008BD002101630168BF
:102270000C3151E8002F22F0100241E80023002B1E
:10228000F5D101680A68D20602D50A68496800914A
:10229000818DFFF743FAE6E770B5044600680169EF
:1022A000E26821F44051114301612169A068E269AB
:1022B00008436169114308432168CA6849F20C6305
:1022C0009A430243CA6020684169A26921F44071BF
:1022D0001143416131492068884202D03049884227
:1022E00002D1FEF737FD01E0FEF724FDE26900238D
:1022F000192164253226B2F5004F626828D0A0FB70
:102300000101930F9200FDF75BFF0146B0FBF5F072
:102310006FF01802504301EB800006EB0010B0FB99
:10232000F5F000F0F002B1FBF5F002EB0012B1FBAA
:10233000F5F06FF01803584301EB800006EB001036
:10234000B0FBF5F000F00F0021681044886070BD0C
:10235000A0FB010192185B41FDF732FF0146B0FB83
:10236000F5F00201B1FBF5F06FF01803584301EBF3
:10237000800006EBC000B0FBF5F000F0F80002EBC7
:102380004002B1FBF5F0584301EB800006EBC000C2
:10239000B0FBF5F000F00700D6E7000000100140A8
:1023A0000014014081628285C285002101642222DD
:1023B00080F83E2080F83C10016921B10168CA68AC
:1023C00042F48072CA6001684A6942F001024A61BF
:1023D0000068C16841F02001C160002070472DE90C
:1023E000F041984617460E460446069D27E0681CB5
:1023F00025D02DB1FEF764FBA0EB0800A8421ED942
:1024000020680C3050E8001F21F4D07140E8001221
:10241000002AF5D12068143050E8001F21F0010196
:1024200040E80012002AF5D1202084F83D0084F80D
:102430003E00002084F83C000320BDE8F0812068C5
:10244000006836EA000004D00020B842CFD0002057
:10245000F3E70120F9E700000148FFF761B9000048
:10246000BC000020FEE700000FB4054B10B503A927
:10247000044A029800F028F810BC5DF814FB000034
:102480001D2600081C0000200907090E002804DB97
:1024900000F1E02080F80014704700F00F0000F118
:1024A000E02080F8141D704702E008C8121F08C120
:1024B000002AFAD170477047002001E001C1121FC5
:1024C000002AFBD1704700002DE9FF4F89B09B46E1
:1024D0000446002506E025280BD05A460B99904764
:1024E000641C6D1C20780028F5D10DB02846BDE88D
:1024F000F08F0027B8460122474900E0074314F84F
:10250000013F203B02FA03F00842F7D120782E2841
:1025100019D114F8010F47F004072A280ED06FF0E4
:102520002F022078A0F1300109290CD808EB88018E
:1025300002EB410100EB0108641CF2E70A98641CFD
:1025400050F8048B0A9020780028CED0642808D058
:10255000692806D075281ED05A460B9990476D1CE5
:1025600058E00A994FF00A0901C90A91002802DAD5
:1025700040422D2102E0390504D52B218DF8201091
:10258000012103E0F90704D02021F7E78A4608AECD
:102590000DE00021FAE70A994FF00A0901C90A91F2
:1025A000F7E74946FDF756FE303106F8011D0028D1
:1025B000F7D1ADEB060000F12009780701D44FF008
:1025C0000108C84502DDA8EB090000E000208046B4
:1025D000002706E008A85A46C05D0B9990476D1C7D
:1025E0007F1C5745F6DB04E030205A460B99904794
:1025F0006D1CB8F10001A8F10108F5DC05E016F842
:10260000010B5A460B9990476D1CB9F10001A9F1D5
:102610000109F4DC641C65E70928010013B54FF6D5
:10262000FF73012269460248FFF76EFA00981CBD4D
:10263000BC000020FEF752FAFFF7DEFBFFF7F2FACC
:10264000FFF7BEFAFFF768FBFFF7B4FB00211E4857
:10265000FEF7FEFF01221D491D48FFF705FA1DA0E8
:10266000FFF702FF194CDFF880A00025DFF87C801F
:102670004FF40079641E4FF6FF774FF4FA7649461F
:102680005046FEF70FFA3046FEF7D0F8E078012802
:1026900016D1A068FDF7D7FD82B23B460C48A16871
:1026A000FFF732FA3B46A27810490948FFF72CFAA7
:1026B000A570E570C8F80050C8F80450A8F8085094
:1026C0003046FEF7B3F8DAE774000020010000207E
:1026D000BC00002073797374656D20697320737476
:1026E00061727465640D0A0000140240200000202D
:1026F00000000000000000000102030406070809B2
:102700000000000001020304BDD3CAD5CAFDBEDD2E
:10271000D2E7B3F6A3ACC7EBD6D8D0C2B7A2CBCD25
:102720000D0A0000BDD3CAD5B5BDB5C4CAFDBEDD16
:10273000CEAAA3BA0000000058270008000000201D
:1027400020000000A82400087827000820000020AE
:10275000E0040000B8240008050000000827000875
:102760002427000801000000100000000000000005
:082770000024F4000000000049
:040000050800018965
:00000001FF
